:020000040800F2
:10000000281C002069020008B54200083942000897
:10001000B1420008E1030008216C00080000000064
:10002000000000000000000000000000BD420008C9
:100030004104000800000000B9420008C142000865
:10004000830200088302000883020008830200087C
:10005000830200088302000883020008830200086C
:1000600083020008830200088302000835040008A8
:10007000830200088302000883020008830200084C
:10008000830200088302000883020008830200083C
:10009000D56A000883020008830200088302000872
:1000A000830200088302000883020008D942000886
:1000B000E5420008F14200088302000883020008BC
:1000C00083020008830200088302000883020008FC
:1000D000830200086D4E00088302000883020008B6
:1000E00083020008830200088302000883020008DC
:1000F00083020008830200088302000883020008CC
:100100000000000000000000000000008302000862
:100110008302000883020008FD42000883020008F1
:10012000830200088302000883020008830200089B
:1001300083020008830200080000000000000000A5
:100140008302000883020008830200080000000008
:10015000000000000000000000000000000000009F
:100160000000000000000000830200088302000875
:1001700083020008000000000000000000000000F2
:10018000000000008302000800F002F800F05CF8B4
:100190000AA090E8000C82448344AAF10107DA45E2
:1001A00001D100F051F8AFF2090EBAE80F0013F0D8
:1001B000010F18BFFB1A43F001031847E87800004D
:1001C000087900000A444FF0000C10F8013B13F0CE
:1001D000070408BF10F8014B1D1108BF10F8015BA0
:1001E000641E05D010F8016B641E01F8016BF9D193
:1001F00013F0080F1EBF10F8014BAD1C0C1B09D1EA
:100200006D1E58BF01F801CBFAD505E014F8016B5B
:1002100001F8016B6D1EF9D59142D6D370470000ED
:100220000023002400250026103A28BF78C1FBD8FF
:10023000520728BF30C148BF0B6070471FB507F099
:10024000FBFB1FBD10B510BD00F058F81146FFF7BD
:10025000F5FF06F0E9FC00F076F803B4FFF7F2FFD3
:1002600003BC00F07DF800000948804709480047BA
:10027000FEE7FEE7FEE7FEE7FEE7FEE7FEE7FEE756
:10028000FEE7FEE704480549054A064B70470000B3
:10029000C54200088901000828160020281C0020FB
:1002A00028180020281800204FF0000200B513463F
:1002B00094469646203922BFA0E80C50A0E80C5086
:1002C000B1F12001BFF4F7AF090728BFA0E80C5037
:1002D00048BF0CC05DF804EB890028BF40F8042B30
:1002E00008BF704748BF20F8022B11F0804F18BF9D
:1002F00000F8012B7047704770477047754600F053
:100300002BF8AE4605006946534620F007008546A7
:1003100018B020B5FFF7B6FFBDE820404FF000064B
:100320004FF000074FF000084FF0000BAC46ACE870
:10033000C009ACE8C009ACE8C009ACE8C00921F0CC
:1003400007018D46704710B50446AFF30080204684
:10035000BDE81040FFF781BF0048704780010020D2
:1003600001491820ABBEFEE72600020070470000DE
:100370000146406A026C12F0500F03D0806B026B92
:10038000084610470168026C42F400720264C968B2
:1003900011F4406F02D000F0FFBA00BF417E002987
:1003A000F9D1016C21F480710164016CC90448BF6A
:1003B00000F0F2BA016C41F00101016400F0ECBA06
:1003C000406A016C41F040010164416C41F004015C
:1003D000416400F0E5BA0000406A00F0DFBA0000B6
:1003E000FEE70000002070470020704710B540F67F
:1003F0007064C2F2000440F67021C2F2000120468F
:10040000002204F037FE40F27061C2F20001204683
:1004100004F02AFE002010BD10B540F67064C2F250
:1004200000040146204604F01FFE204604F0FEFDB5
:10043000002010BD41F28410C2F2000000F078BE2E
:1004400070470000EFF3108072B600BFFEE70000B7
:10045000F0B5036803F130424FEA3224052C4FF027
:10046000010229D840F2001CC5F2000CE646DFE884
:1004700004F00D032323070B4FF0A04E06E000BF4E
:100480000CF5806E02E000BF0CF5407E90F83C2039
:10049000012A04BF0220F0BD9A6852075CBFDEF853
:1004A00008205FEA427209D5016C012241F0200167
:1004B0000164002180F83C101046F0BD4FF4C16289
:1004C0000C68634508BF4FF40272B3F1A04F08BF38
:1004D0004FF402725CF8025025F4604514B34E6884
:1004E00090F8307046EA473635434CF802509D6824
:1004F00005F00305012D02D11B68DB072DD1DEF8C5
:10050000083003F00303012B03D1DEF80030DB07D2
:1005100023D15CF8023040F61F778968BB4319434A
:10052000214318E04CF80250996801F003010129B9
:1005300002D11968C90710D1DEF8081001F00301D3
:10054000012903D1DEF80010C90706D15CF80210BA
:1005500040F61F7399434CF802100022A9E70000EF
:100560002DE9F04181B00022009290F83C20012A50
:1005700004D10221084601B0BDE8F08101230268E0
:1005800080F83C3093685B0700F1D6814B68042B00
:1005900014D803EB4303176B5E001F23D1F80080D0
:1005A00003FA06F5AF4308FA06F637431763976870
:1005B00017F00C0F40F0D58046E000BF092B17D88C
:1005C00003EB43036FF01D06576B06EB43061F2337
:1005D000D1F8008003FA06F5AF4308FA06F6374370
:1005E0005763976817F00C0F40F0BB802CE000BFFA
:1005F00003EB43070E2B4FEA470313D8976BA3F186
:100600003C061F23D1F8008003FA06F5AF4308FA31
:1006100006F637439763976817F00C0F40F0A180F8
:1006200012E000BFD76BA3F15A061F23D1F8008058
:1006300003FA06F5AF4308FA06F63743D76397681F
:1006400017F00C0F40F08D8008EB48071426B8F126
:10065000090F88BF1E3F88BF1826955907248B684D
:10066000BC40A543BB402B439351D1E90437D66826
:100670005D1E032D16D8062303EA960307FA03F638
:10068000DFE805F002303E4C136E4FF20007C0F277
:10069000FF373B4043EA8863334343F0004313662C
:1006A0005FE000BF136E4FEA886603F0F843B34281
:1006B00040D1136E23F000431366536E03F0F843EA
:1006C000B3423CD0936E03F0F843B34240D1936EF3
:1006D00023F000439366D36E03F0F843B34240D156
:1006E0003BE000BF536E4FF20007C0F2FF373B40C4
:1006F00043EA8863334343F00043536631E000BF6D
:10070000936E4FF20007C0F2FF373B4043EA886325
:10071000334343F00043936623E000BFD36E4FF2B0
:100720000007C0F2FF373B4043EA8863334343F09E
:10073000004315E0536E03F0F843B342C2D1536E49
:1007400023F000435366936E03F0F843B342BED0E8
:10075000D36E03F0F843B34203D1D36E23F00043CA
:10076000D366936803F00303012B02D11368DB0700
:1007700040D1CB6840F2083C0127C5F2000C012BA8
:1007800007FA08F714D1D2F8B030B8F10A0F43EAEB
:10079000070308EB4807C2F8B0302DD393691B3F1D
:1007A00007268968BE40B343B9401943916104E00C
:1007B000D2F8B010B943C2F8B01002F13041B1FA2A
:1007C00081F14FEA511EA2EB0C0101F50271B1FA61
:1007D00081F14909B8F1100F4EEA010425D16146B3
:1007E000002C08BF01F58061096809024CD4012181
:1007F00035E000BF0021A4E0536938258968FE1C5C
:1008000005FA07F7BB43B1401943516102F130418A
:10081000B1FA81F14FEA511EA2EB0C0101F5027110
:10082000B1FA81F149094EEA0104B8F1120F0BD077
:10083000B8F1110F26D16146002C08BF01F5806187
:100840000968C90107E000BF6146002C08BF01F537
:100850008061096849024FF0000100F1728002F1E5
:1008600030434FEA3327052F10D8ACF50275002628
:10087000DFE807F017040C0C101400BF4FF0A04580
:100880000EE000BF00215CE000215AE000250126B7
:1008900007E000BF0CF5FC7502E000BF0CF1F805A5
:1008A0000026936803F00303012B02D11268D207DC
:1008B00042D13EB9AA6802F00302012A02D12A6895
:1008C000D20739D1002943D0BEF1000F4CD0DCF85B
:1008D00000104DF6836241F40001CCF8001040F2A4
:1008E0002401C2F200010968C4F21B32A1FB02120A
:1008F000910C01EB8101490000910099002943D03E
:10090000009901390091009900293FD000990139DF
:100910000091009900293BD000990139009100997C
:10092000002937D0009901390091009900294FF032
:100930000001E5D105E000BF016C41F02001016438
:100940000121002280F83C20084601B0BDE8F0817A
:10095000B8F1110F0AD1BEF1000F13D0DCF800106E
:1009600041F080710AE000BF0021EAE7002C08BFD7
:100970000CF5806CDCF8001041F48001CCF800101C
:100980000021DEE70021DCE70021DAE70021D8E7DB
:100990000021D6E70021D4E770470000704700002F
:1009A00070470000B0B582B00446002001903CB111
:1009B000206CC00608D4206C60B32168002546E195
:1009C000012002B0B0BD00BF0025206C00F0100077
:1009D000401940F04E8120688168490700F1498143
:1009E000216C00F1304E21F48171023121644FEA13
:1009F0003E2140F2001C0529C5F2000C64D80025F8
:100A00006346DFE801F06C03616165694FF0A04364
:100A100064E000BF002520466564C4E9125584F8EF
:100A20003C5000F04DF921688868C00000F10F814A
:100A3000886800F00300012803D10868C00740F06F
:100A4000DB80206CC006B9D4206C41F202129043C6
:100A50000230206488684DF6836220F04050886040
:100A60008868C4F21B3240F08050886040F2240055
:100A7000C2F2000000680025A0FB0202900C00EB0F
:100A80008000400001900198002800F0E08001986B
:100A900001380190019800283FF490AF0198013887
:100AA0000190019800283FF489AF01980138019026
:100AB000019800283FF482AF019801380190019815
:100AC0000028E4D1C3E000BF0023012507E000BFF8
:100AD0000CF5806302E000BF0CF5407300258168CF
:100AE00001F00301012902D10168C9071ED13DB9F6
:100AF000996801F00301012902D11968C90715D1CC
:100B0000A0EB0C01BEFA8EF2B1FA81F1520949094B
:100B100011434FF4C16118BF4FF402715CF801201A
:100B2000636822F440321A434CF80120616B627E04
:100B30000129D4E902154FEA423341EA050194F84C
:100B4000205003F5805308BF5303012D41EA0301F0
:100B500026D1002A44D0226C42F0200222F0020268
:100B60002264626C42F001026264A26A012A1AD015
:100B700040F2005540F48073C5F20005AB4240F0EE
:100B80008980B2F5807F00F07F80B2F5E07F00F0D1
:100B90007F80B2F5307F08BF4FF4E0727AE000BF8B
:100BA000A26A012AE4D1826812F00C0F7AD0C268DE
:100BB0004CF20703CFF6F0731A401143C16021696C
:100BC000026B012922F00F0102D1E269013A1143BF
:100BD0000163002001216FF0030260644DE000BF5B
:100BE000626A0023CFF6FF7303EB42421143A26A0D
:100BF000012AD8D0BCE700BF886800F00D000128AA
:100C00001BD1886840F0020088600320086000F073
:100C10006DFC21688A68D2073FF413AF054603E0F4
:100C20008868C0073FF40DAF00F060FC401B2168EE
:100C30000328F5D38868C007F2D0206C012540F066
:100C400010002064606C40F001006064206C8868D3
:100C5000C00003D5886880007FF5B7AE206C40F0F7
:100C6000100020F002002064606C40F0010060641D
:100C7000206C012010216FF01202236C1A401143E6
:100C8000216402B0B0BD00BF4FF4307202E000BF7B
:100C90004FF48072E36A1A431143826812F00C0F1A
:100CA0007FF485AFC26844F202039A43C260227E99
:100CB00094F83030920342EA4302114377E7000090
:100CC00070B586B0044600680026B0F1A04F0596C6
:100CD000049601D006B070BD41F21400C4F20200C7
:100CE000016841F080510160016801F0805100917C
:100CF0000099016841F400310160006801A900F425
:100D0000003000900098012001900320CDE90206F8
:100D10004FF0904000F00EFB41F284150820C2F223
:100D20000005C4F202004FF40072C5E9000605F1A7
:100D3000100080214FF400634FF0200C80E80C106D
:100D40002846C5E90261EE6100F044FA002818BFA8
:100D5000FFF778FBA5636C6206B070BD2DE9F04328
:100D600081B0036804469868400703D494F83C00B7
:100D7000012805D10227384601B0BDE8F08300BF45
:100D800040F20838012040F20019C5F2000884F84A
:100D90003C0043F48070C5F20009484540461CBF42
:100DA00040F20870C5F20000006815460E46C00605
:100DB00008D00020012784F83C00384601B0BDE887
:100DC000F08300BF986800F00300012802D1186882
:100DD000C0072FD198683F21C8F2000108420FD008
:100DE000206C012740F010002064606C40F001008E
:100DF0006064002084F83C00384601B0BDE8F08310
:100E0000986840F00100986000F070FB2368196852
:100E1000C9070FD1074602E01868C0070AD100F0E1
:100E200065FBC01B23680328F6D31868C007F3D1FD
:100E3000D6E700BF206C40F60171884300F5807052
:100E4000206443F48070484540461CBF40F208705F
:100E5000C5F200000068C00607D040F2004143F42C
:100E60008060C5F20001884242D1206C20F48010DD
:100E70002064D868800104D5206C012161F30D3015
:100E80002064206C40F27131C0044FF0000044BF78
:100E9000606C20F006006064A06BC0F6000140F2B8
:100EA000D93240F2C13C00F1280E0027C0F6000202
:100EB000C0F6000C8EE806101C2184F83C70196006
:100EC0005968324641F010015960D96841F001017A
:100ED000D96003F140012B4600F0CAF9206881680F
:100EE00041F004018160384601B0BDE8F08300BFE5
:100EF000206CA8F5027140F480108B42206403D06E
:100F0000D8F80401B6E700BF4FF60450CFF6FF70E3
:100F100058F80000AEE700007047000010B54379B4
:100F2000012B4FF002031CD00371D0F800E040F613
:100F3000FE73DEF800C0D1E90041934021432CEA62
:100F4000030391401943CEF80010C021DEF80030B1
:100F5000914023EA0101CEF8001001210023017124
:100F60004371184610BD00007047000010B50168BD
:100F700004460868800444BF486B5FEA804019D487
:100F80000868800046BF486B5FEA800010BD0420FF
:100F90002071206940F0020020614FF0005048634A
:100FA000086820F0805220460A60BDE81040FFF734
:100FB000B3BF00BF04202071206940F00100206110
:100FC0004FF400504863086820F4805008602046C1
:100FD000FFF7CAFF2168D3E7002804BF012070474C
:100FE00010B50446007920B900206071204600F059
:100FF00007F802202071002001212061217110BD1D
:1010000080B586B0006847F20042C4F200020021B9
:1010100090420591049101D006B080BD41F21400C8
:10102000C4F20200826842F000528260826802F0DC
:1010300000520092009A026842F400320260006896
:1010400000F4003000900098302001900320CDE99A
:10105000020101A94FF0904000F06CF93620002108
:10106000002200F0BFFA362000F0A8FA06B080BDDA
:1010700081B04FF0000CCDF800C00068002900904E
:101080000098104414BF14300830009000990020DC
:101090000B6001B070470000014690F82100022863
:1010A00016D10868D1E90FC3026822F00E0202606F
:1010B000026822F001020260012000FA03F2CCF87B
:1010C000042081F821000020002281F820207047B0
:1010D000042088630120002281F82020704700004E
:1010E00080B590F8211002291CD10268D0F834E0B4
:1010F000D0E90FC31168BEF1000F21F00E0111609D
:10110000116821F0010111604FF0010101FA03F1B2
:10111000CCF804104FF48071018407D0F047002010
:1011200080BD00BF04218163012080BD002080BDFF
:10113000B0B5D0E90FC30268DCF800100424D2F87F
:1011400000E09C400C4218BF1EF0040520D1022490
:101150009C400C4218BF1EF0020527D1D940090758
:1011600022D51EF0080108BFB0BD116821F00E01A4
:101170001160012101FA03F2CCF804208163016BB4
:101180004FF48072028479B1BDE8B040084700BFD7
:101190001168890603D4116821F004011160CCF8AC
:1011A0000440C16A0029EFD1B0BD00BF11688906B3
:1011B00006D4116821F00A011160012180F8211084
:1011C000CCF80440816A0022002980F82020DBD17D
:1011D000EAE70000002804BF012070472DE9F0472E
:1011E00040F2000C0168C4F2020C4FF6F8320CF524
:1011F0008163CBF6FD72994238BF02F580624CF6EE
:10120000CD430A44CCF6CC43A2FB032E00F1040AE2
:1012100000F110089AE8040698E8E0010B6843F62C
:10122000F07423EA040342EA030242EA090242EAB2
:101230000A0242EA050242EA060242EA070242EADA
:1012400008020A600CF580616FF003023CBF0021C8
:10125000C4F2020102EA9E02C0E90F1200214FF41B
:10126000807281630284BDE8F04708467047000041
:10127000F0B590F820C0BCF1010F32D090F821C039
:101280004FF0010EBCF1010F80F820E026D14FF0A5
:10129000020C80F821C04FF0000CC0F838C0D0E933
:1012A00000C4C56AC66BDCF80070102C27F001077B
:1012B000CCF80070006C0EFA00F070600846CCF8B4
:1012C000043004BF10460A46CCF80800CCF80C20C5
:1012D000DCF8000045B140F00E000DE0002180F880
:1012E00020100220F0BD00BF40F00A00CCF8000042
:1012F000DCF8000020F00400CCF80000DCF800006E
:1013000040F00100CCF800000020F0BDB0B504466C
:1013100000F0ECF8054640F20000C2F20000007850
:10132000611C18BF044400BF00F0E0F8401BA0425D
:10133000FAD3B0BD2DE9F04F82B00D68002D00F05A
:10134000CB8041F2000400F13847C4F600040522C6
:101350004FEAB726A04208BF0422042E38BF4FEA46
:10136000B722002401274FF0000E0026009209E06A
:101370000D68013635FA06F20EF1040E04F102048E
:1013800000F0AA8007FA06FB15EA0B08F0D0D1F8A6
:1013900004A003220AF0030CACF10105A240012DC8
:1013A0006FEA020910D88268CD6802EA0902A540F6
:1013B0002A4382604268CAF3001522EA0B02B54054
:1013C0002A43426006E000BFBCF1030F02D14FF098
:1013D000030C21E0C2688D6802EA0902A5402A4395
:1013E000BCF1020FC26017D16FF0030202EA56028D
:1013F00002440EF01C030F25D2F820C005FA03FAB0
:101400000D692CEA0A0C05FA03F343EA0C03136294
:10141000D1F804A00AF0030C02680CFA04F302EA03
:1014200009021A431AF4403F0260A1D041F21803A6
:10143000C4F202031A6840F2004942F001021A6045
:101440001A68C4F2010902F001020192019A26F021
:1014500003024FF6084A4A44CFF6FF7A52F80AC010
:101460000EF00C050F23009FAB402CEA030307FA94
:1014700005F52B4342F80A30D9F808C04B684CEA0E
:101480000805DA0258BF2CEA080540F20C4CC9F8EE
:101490000850C4F2010CDCF800209F0242EA080563
:1014A00058BF22EA0805CCF80050D9F804209D0363
:1014B00042EA080758BF22EA0807C9F80470D9F8B9
:1014C0000020DB0342EA080758BF22EA0807C9F8F0
:1014D000007001274CE700BF02B0BDE8F08F0000AC
:1014E0001823002A08BF2823C150704741F220600A
:1014F000C2F200000068704740F2000041F2206133
:10150000C2F20000C2F2000100780A6810440860CC
:101510007047000080B542F20000C4F2020001688A
:1015200041F010010160032000F088F8002000F075
:1015300005F800F027F8002080BD000070B540F2EB
:101540000006C2F2000640F224013278C2F2000125
:101550004FF47A730968B3FBF2F20446B1FBF2F17F
:10156000084601F01FFB0F2C4FF0010508D838B9D1
:101570004FF0FF3021460022002500F033F8746060
:10158000284670BD82B041F21800C4F20200016822
:1015900041F001010160016801F00101019101992F
:1015A000416841F080514160406800F080500090F7
:1015B0000098072002B000F041B80000002848BFA2
:1015C0007047C1B200F01F00012202FA00F04EF293
:1015D0000012CEF2000242EAD10121F003010860BC
:1015E0007047000010B54EF60C5CCEF2000CDCF833
:1015F0000030C3F3022E8EF00704042C28BF04240D
:10160000BEF103034FF0FF3E0EFA04F438BF00238F
:10161000A14399400EFA03F39A43114300F00F02DD
:1016200000F160430901043A03F564436244002871
:1016300048BF02F10C03197010BD00004EF60C51AA
:10164000CEF200010A684FF6FF031A4060F30A2247
:1016500042F0806040F0FD700860704780B501F096
:10166000070C0CEB8C0C00EBCC0C01EB810E0CF19D
:10167000280C00EBCE00090658BF00F5B47C002012
:10168000002A19BFCCF808300121ACF8063000213F
:101690008CF80C1080BD00007047000001EB810247
:1016A000D0F8E83200EBC200C26B184603F06EBF00
:1016B00001EB8102D0F8E83200EBC200D0F87C21C7
:1016C000184603F0C9BF000010B5044648B2B0F197
:1016D000FF3F01F0070000EB800104EBC10205DDD4
:1016E00002F5B471002382F8693104E0012302F1AC
:1016F000280182F8293094F8A8220870012A04BF32
:10170000022010BD2068012284F8A82204F0D0FC39
:10171000002084F8A80210BDB0B50446406801F06E
:101720000F02824284BF0120B0BD48B2B0F1FF3F3A
:1017300001F0070000EB800104EBC10206DD02F5B9
:10174000B471002382F8693105E000BF012302F182
:10175000280182F8293094F8A8220025012A8D70EA
:10176000087004BF0220B0BD2068012284F8A822BE
:1017700004F02AFD284684F8A852B0BD01F0070104
:1017800001EB810100EBC100D0F88401704700003B
:1017900070B5064648B2B0F1FF3F01F0070000EB1C
:1017A000800107DD06EBC10404F5B471002584F85F
:1017B000695106E006EBC10C01240CF128018CF8FC
:1017C000294008700A61022BCB7004BF0020087109
:1017D00096F8A802012804BF022070BD30680122DB
:1017E00086F8A82204F03EFB002086F8A80270BD0F
:1017F00010B501F0070C0CEB8C0100EBC10E00687A
:101800000EF5B4710024CEF87C21CEF88031CEF8EC
:1018100084418EF869418EF868C104F02DFD0020E6
:1018200010BD000010B54268044601F00700904268
:1018300084BF012010BD4AB2B2F1FF3F0ADD01EBC7
:10184000810104EBC10202F5B471002382F8693111
:1018500009E000BF00EB800104EBC102012302F1AB
:10186000280182F8293094F8A8320122012B8A70CD
:10187000087004BF022010BD206884F8A82204F07C
:10188000E1FC002084F8A80210BD000080B501F042
:10189000070C0CEB8C0100EBC10101F828CF0068AC
:1018A0004FF0010C01F1140781F824C04FF0000E35
:1018B00087E80C400B6281F801C004F0DDFC0020D9
:1018C00080BD00002DE9F04F81B00446006805F0AE
:1018D00007F901041ED4410500F11084410400F110
:1018E0001F84810400F13684C10400F13D840105A8
:1018F00000F15484810500F16B84C00540F10C8433
:101900002068B0F8441021F48071A0F8441000F071
:1019100003BC00BF2068B0F94410B1F1FF3F00F3F1
:10192000FB8304F52C7140F60F75009123E000BF96
:10193000B0F8501094F8682101EBC20100EB4101AE
:10194000B1F80C34B4F86E2100996FF39F23C4F8FA
:10195000843105F0C9F82068018829408031018070
:10196000204600F007FD00BF2068B0F94410B1F137
:10197000FF3F00F3D183B0F8442012F00F090DD0DF
:1019800030F929104FEA490AB1F1FF3F1FFA81F8F7
:1019900032DD5FEA0860E7D562E100BF0188D20668
:1019A0006CD4294001F500410180B0F8501094F842
:1019B000282001EBC20100EB4100B0F80404E16B08
:1019C0006FF39F2060640844E06320460021FFF726
:1019D00065FE94F824000028C6D0206C0028C3D1EE
:1019E00094F82400216840F08000C0B2A1F84C00B7
:1019F000002084F82400B7E730F81A10294080311D
:101A000020F81A1009EB890104EBC10B9BF8741143
:101A10000BF5B476002900F083809BF86B11022946
:101A200040F09080B0F850203178DBF8803102EB44
:101A3000C1070BF5C0725FEA484500EB470700F1AC
:101A40009B80B7F80C7400256FF39F27DB1B38BF12
:101A50002B46136040F2A8805FEA486240F60F759B
:101A600000F1B48030F8212048F2C0032A401A4324
:101A700020F82120002F40F0AA80CFE00A053FF592
:101A800057AF09B2B1F1FF3F3FF76EAF0188294070
:101A900080310180B0F8501094F8682101EBC20148
:101AA00000EB4101B1F80C346FF39F23C4F884318B
:101AB00093B1D4F87C1179B1B4F86E2105F014F823
:101AC000D4F87C01D4F884110844C4F87C01204681
:101AD0000021FFF7EDFD206801880A053FF544AFBE
:101AE00001F44051B1F5405F3FF43EAFB0F8501003
:101AF00000F20C42535A6FF39F235352D4F87831BB
:101B00003F2BC0F0178231F802C05F09DE064FF0AC
:101B1000FF3608BF06EB53174CEA872393E200BF5A
:101B2000B0F85010327801EBC20100EB4101B1F87E
:101B30000C746FF39F27002F70D0DBF87C11BBF87B
:101B40006E2167E0317848F2C00330F821202A4046
:101B50001A4320F8212030F82120B0F850305204E8
:101B600003EBC10100EB410118D4B1F80C746FF321
:101B70009F2767BB52E000BFB7F8047400256FF3DE
:101B80009F27DB1B38BF2B46136025D95FEA4862CD
:101B900040F60F7531D4CFBB40E000BFB1F80474FC
:101BA0006FF39F2797BB39E030F8212043F60F737E
:101BB0001A404CF28003A3F500535A4020F821202C
:101BC0005FEA486240F60F757FF54CAF37B3DBF83C
:101BD0007C11BBF872211DE030F8212043F60F7311
:101BE0001A404CF28003A3F500535A4020F82120FC
:101BF0005FEA486240F60F75CDD530F8212048F2F3
:101C0000C0032A401A4320F821203FB1DBF87C11A1
:101C1000BBF870213B4604F067FF00E00027DBF8CB
:101C20008411DBE95F0239443844CBF88411CBF8E6
:101C30007C011AB1DBF87801B84209D93178204625
:101C4000FFF736FD5FEA08607FF58EAE08E000BF63
:101C50002068314604F010FB5FEA08607FF584AE2F
:101C6000206809EB890130F81A2004EBC10302EA6D
:101C7000050101F5004120F81A1093F82B1003F12B
:101C8000280B012926D193F8341000294FF00001C8
:101C9000196400F049815FEA486100F1918093F88E
:101CA0002910012900F02A81002940F03D81B0F877
:101CB00050109BF80020084400EB0210B0F80C1400
:101CC0006FF39F21A0F80C14B0F80C1441F40041FC
:101CD0001CE100BF5FEAC8511ED4B0F850209BF849
:101CE00000101F6C02EBC10200EB4202B2F80424A8
:101CF00000266FF39F22BF1A38BF37461F6440F299
:101D00001581D96B5F6C1144D963B9185964594670
:101D100004F0B2FA28E600BFB0F850709BF800104B
:101D20001A4652F8405F40F60F7A5FEA486607EBC2
:101D3000C1075FD400F20C4939F817706FF39F2781
:101D4000EE1B4FF0000538BF2E46166040F28E8025
:101D50005FEA484208D430F821204CF2800602EABB
:101D60000A02324320F821201D4615F84C2F012A83
:101D700040F0B2811A4652F8488F52E904E652F810
:101D800004AC06EB070C0AEB0706F04542F80CCC56
:101D900042F8046C80F01081B8F1000F00F06C8103
:101DA0000027C64617602F7093F82920012A40F0BB
:101DB0000B81B0F8502009EB011121F802E07FE11E
:101DC00093F82910012900F0A580002940F0AC808B
:101DD000B0F850109BF80020084400EB0210B0F857
:101DE00004146FF39F21A0F80414B0F8041441F414
:101DF000004197E000F2044939F817706FF39F270C
:101E0000EE1B4FF0000538BF2E46166052D95FEA30
:101E1000484208D530F821204CF2800602EA0A0236
:101E2000324320F821201A4612F84C6F012E40F060
:101E300053811D4655F848EF55E904A655F8048C22
:101E400006EB070C08EB0706D64545F80CCC45F821
:101E5000046C80F0D3804FF00008BEF1000F82F8D0
:101E6000008040F0CE80BE46CDE000BF93F8292030
:101E7000012A6BD0002A76D1B0F8502000EB011374
:101E80001A44B2F804346FF39F23A2F80434B2F872
:101E9000043443F40043A2F80434B0F8500009EBD2
:101EA0000112135A6FF39F231352135A43F4004342
:101EB00058E000BF93F82920012A5BD0002A66D1A0
:101EC000B0F8502009EB01139F5A6FF39F279F52E0
:101ED0009F5A47F400479F52B0F8502000EB011082
:101EE0001044B0F80C246FF39F22A0F80C24B0F833
:101EF0000C2442F40042A0F80C2448E0B0F8501042
:101F00009BF80020084400EB02100021A0F80C14FC
:101F10000AE000BFB0F850109BF80020084400EB26
:101F200002100021A0F804149BF800102046FFF7CF
:101F3000B5FB19E5002B00F0858003F001078E5AF0
:101F400007EB530346EA832382E000BFB0F850203A
:101F500000EB01131A440023A2F80434B0F8500037
:101F600009EB011213522046FFF798FB5FEA484045
:101F700014D5B1E0B0F8502009EB011300279F52AF
:101F8000B0F8502000EB01101044A0F80C7420466B
:101F9000FFF784FB5FEA484040F19E8020689BF891
:101FA00000104CF2800330F8212002EA0A021A43A2
:101FB00020F8212090E000BFA8EB0E05156093F8F3
:101FC0002920012A3FF4F5AE002A79D1B0F85070EB
:101FD00009EB0111CA5BBEF13F0F6FF39F22CA5399
:101FE00052D35FEACE654FEA5E127D5A4FF0FF365C
:101FF00008BF06EB5E1245EA82225EE0AEEB0A08FD
:10200000D646C5F8008093F82920012A2CD0002A52
:102010005CD1B0F8507009EB0111CA5BBEF13F0F03
:102020006FF39F22CA533BD35FEACE654FEA5E123D
:102030007D5A4FF0FF3608BF06EB5E1245EA82225A
:1020400041E000BF8B5A48F20007CFF6FF773B43D1
:102050008B52018843F60F7211404CF28002A2F5B8
:102060008052514001807FE4B0F8502009EB01110B
:1020700021F802E02AE000BF00222A70BE4693F851
:102080002920012AA0D194E6BEF1000F14D00EF051
:1020900001027D5A02EB5E0245EA82220FE000BF98
:1020A000BEF1000F0ED00EF001027D5A02EB5E026F
:1020B00045EA822209E000BF7A5A42F400427A528D
:1020C0005A8E04E07A5A42F400427A521A8E1FFA6B
:1020D0008EF3614604F060FD20689BF8001040F626
:1020E0003F7330F8212040F60F751A4048F2C003C4
:1020F000103B5A4020F82120FFF736BC2068B0F88A
:10210000441021F48061A0F84410204600F004F946
:1021100094F8A80201280DD101B0BDE8F08F00BFEE
:102120002068B0F8441021F48041A0F8441001B0B8
:10213000BDE8F08F0120002584F8A80284F824501F
:102140002068002104F020FD84F8A85201B0BDE809
:10215000F08F00BF2068B0F8441021F40051A0F8BF
:10216000441001B0BDE8F08F2068B0F8401021F0B5
:102170000401A0F84010B0F8401021F00801A0F8C8
:102180004010204600F0DAF82068B0F8441021F43E
:102190008051A0F8441001B0BDE8F08F2168B1F87B
:1021A000400040F00800A1F84000B1F8440020F4DD
:1021B0000060A1F84400B1F8400040F0040220465D
:1021C000A1F8402001B0BDE8F04F00F0F5B800BF25
:1021D0002168B1F8440020F400722046A1F84420A0
:1021E00001B0BDE8F04F00F0ADB80000002804BF1A
:1021F00001207047F0B585B0054690F8A90228B9CE
:10220000002085F8A802284600F04AF8032085F847
:10221000A902286803F0CEFF696859B300204FF087
:10222000010C0022002300BF02EB820205EBC20476
:1022300084F828300133DAB2914284F829C084F856
:102240002B00C4E90E002064EED8002000230022F9
:1022500003EB830305EBC30484F868210132D3B296
:10226000994284F8690184F86B01C4E95E00C4F8FE
:102270008001EDD805F1080E28689EE81C50D5E9CC
:1022800007678DE81050CDE9036703F085FF002054
:10229000012185F8240085F8A91205B0F0BD0000E1
:1022A00010B586B0006845F60041C4F200018842CE
:1022B00002D006B010BD00BF41F21404C4F2020403
:1022C000206801A940F400302060206800F400304C
:1022D000019001984FF4C05001900220029000201C
:1022E0000390032004900E2005904FF09040FFF7DC
:1022F00021F8A068002140F40000A060A06800223E
:1023000000F40000009000981420FFF76BF91420EF
:10231000FFF754F906B010BD10B5044680680228D6
:1023200018BFFEF78FF8D4F8E802012103F09CFAF9
:10233000D4F8E802BDE8104003F054BAD0F8E8023F
:1023400003F07ABAD0F8E80203F080BA10B5044678
:1023500090F8A802012804BF022010BD012084F8D3
:10236000A80284F82410206804F00EFC002084F8F1
:10237000A80210BDD0F8E82200F52C71104603F039
:1023800089BA000010B5044690F8A802012804BFDD
:10239000022010BD2068012184F8A81204F090FBEF
:1023A00020460121FFF778F9206803F0F3FE0020B2
:1023B00084F8A80210BD000010B50446D0F8E80269
:1023C00003F0BEFAA069002808BF10BD4EF61050F9
:1023D000CEF20000016841F00601016010BD00006E
:1023E0002DE9F04182B00446807841F23006C00702
:1023F000C4F2020656D056F8140C10F080580BD1D7
:1024000056F8140C40F0805046F8140C56F8140C92
:1024100000F080500190019847F20007C4F20007D5
:102420003868C00512D4386840F480703860FFF70F
:102430005DF805463868C00508D4FFF757F8401B1B
:102440006428F7D9032002B0BDE8F08156F8100CDB
:1024500010F4407015D0616801F44071884210D0CA
:1024600056F8100C40F24042C4F24222012320F4FC
:10247000407113600023C007136046F8101C40F041
:10248000A38056F8100C616820F440700843B8F13E
:10249000000F46F8100C05D156F8140C20F08050AF
:1024A00046F8140C2068C1071CD1810722D44107CB
:1024B00028D481062ED4810334D441063CD40107AC
:1024C00042D4C10648D481054ED4010656D4C10574
:1024D0005ED4C10466D480046CD4002002B0BDE890
:1024E000F08100BF3168A26821F00301114331601F
:1024F0008107DCD53168E26821F440311143316055
:102500004107D6D53168226921F440211143316059
:102510008106D0D53168E26921F0100111433160A4
:102520008103CAD556F82C1CA26B21F480011143FB
:1025300046F82C1C4106C2D53168226A21F02001E0
:10254000114331600107BCD53168626921F4401143
:1025500011433160C106B6D53168A26921F440014A
:10256000114331608105B0D556F82C1CE26A21F484
:102570000001114346F82C1C0106A8D556F8041C8E
:10258000626A21F4F871114346F8041CC105A0D514
:1025900056F8041CA26A21F47851114346F8041C31
:1025A000C10498D53168226B21F4807111433160E8
:1025B000800492D53068616B20F40070084330606D
:1025C000002002B0BDE8F081FEF790FF054641F221
:1025D000883700BF56F8100C80073FF552AFFEF762
:1025E00085FF401BB8424FF00300F3D9E9E7000034
:1025F0002DE9F04381B0002877D042F20008C4F200
:1026000002080446D8F800000D4600F00700884292
:102610000CD2D8F8000020F007002843C8F80000CA
:10262000D8F8000000F00700A8425ED1206841F20F
:1026300004098107C4F2020907D5D9F80010A2687D
:1026400021F0F0011143C9F80010C00744D1D8F8B7
:10265000000000F00700A8420CD9D8F8000020F0D4
:1026600007002843C8F80000D8F8000000F0070071
:10267000A8423AD12068410707D5D9F80010E2688E
:1026800021F4E0611143C9F80010000708D5D9F81A
:102690000000216920F4605040EAC100C9F8000040
:1026A000D9F8002002F00C00082841F20020C0F206
:1026B0007A0051D147F67423C2F38341C0F6000378
:1026C000595CD9F82830D2033CD440F60010C0F24F
:1026D0003D00484340E000BF606802280AD001285E
:1026E0002AD159F8041C890308D4012001B0BDE89F
:1026F000F08300BF59F8041C8901F6D5D9F8001001
:1027000021F003010843C9F80000FEF7EFFE06467A
:1027100041F28837D9F80000616800F00C00B0EB96
:10272000810F94D0FEF7E2FE801BB842F2D903205D
:1027300001B0BDE8F08300BF59F8041C8907D4D567
:10274000DCE700BF03F00F0247F68423C0F6000366
:102750009A5CB0FBF2F04843D9F8001047F65C22CF
:10276000C1F30311C0F60002515C40F2240220FACA
:1027700001F140F20400C2F200000068C2F200025F
:102780001160FEF7DBFE002001B0BDE8F083000021
:1027900040F2240041F20401C2F20000C4F202013E
:1027A0000068096847F66C22C1F30221C0F60002F6
:1027B000515CC8407047000040F2240041F204011F
:1027C000C2F20000C4F202010068096847F66C22F8
:1027D000C1F3C221C0F60002515CC840704700003E
:1027E00041F2040CC4F2020CDCF8003003F00C00DF
:1027F000082841F20020C0F27A0018BF704747F65F
:102800007421C3F38342C0F600018A5CDCF828100F
:10281000DB0305D440F60010C0F23D005043704782
:1028200047F6842301F00F01C0F60003595CB0FBAA
:10283000F1F05043704700002DE9F04182B00028CC
:1028400050D00446007841F20006C007C4F20206E8
:102850000AD0706800F00C00042840F085803068D1
:10286000800301D56068E8B3207880071AD57068C6
:1028700010F00C0F09D0706800F00C00082840F030
:10288000A5807068C00300F1A1803068800702D580
:102890002069012826D13068616920F0F80040EAFB
:1028A000C10030602078000720D42078400735D45C
:1028B000E56995B1706800F00C00082840F0C2800E
:1028C000012D0FD07068216A00F480328A4209D14C
:1028D000616A00F47010884204D1002002B0BDE8A3
:1028E000F08100BF012002B0BDE8F081A06900289E
:1028F00000F094800020C4F242200121C0F880142E
:10290000FEF7F4FD054600BF706A8007CDD4FEF7E0
:10291000EDFD401B0228F7D91CE100BFF06910F063
:10292000805808D1F06940F08050F061F06900F003
:1029300080500190019847F20007C4F20007386800
:10294000C00559D4386840F480703860FEF7CEFD79
:10295000054600BF3868C0054ED4FEF7C7FD401BD2
:102960006428F7D9F6E000BF706800F00C00082872
:1029700003D17068C0033FF572AF6068B0F5A02F57
:1029800000F09480B0F5803F00F09480002840F083
:102990009580306820F480303060306820F48020EA
:1029A0003060F06AA16820F00F000843F062FEF783
:1029B0009DFD0546306880037FF556AFFEF796FD16
:1029C000401B64284FF00300F4D987E720690028F2
:1029D00040F20000C4F2422056D001210160FEF70F
:1029E00085FD0546306880073FF555AFFEF77EFD53
:1029F000401B0228F6D9ADE0E068002800F07A809C
:102A0000052800F09180012800F09280306A20F0C3
:102A100001003062306A20F004008CE00020C4F233
:102A200042200021C0F88014FEF760FD054600BF7B
:102A3000706A80077FF539AFFEF758FD401B02280A
:102A4000F6D987E00027C4F2422700203866FEF757
:102A50004DFD022D05460BD13068800140F1888084
:102A6000FEF744FD401B02284FF00300F4D935E780
:102A7000306880017FF531AFFEF738FD401B02283A
:102A80004FF00300F4D929E700210160FEF72EFD85
:102A9000054600BF306880077FF504AFFEF726FDCE
:102AA000401B02284FF00300F4D917E7306840F4C8
:102AB00080203060306840F4803006E0306820F4D8
:102AC00080303060306820F480203060F06AA16887
:102AD00020F00F000843F062FEF708FD054600BF36
:102AE000306880033FF5C0AEFEF700FD401B642850
:102AF000F6D92FE0306A20F001003062306A20F011
:102B000004003062FEF7F2FC054641F2883700BF50
:102B1000306A800722D5FEF7E9FC401BB8424FF02F
:102B20000300F5D9DAE600BF306A40F004003062F5
:102B3000306A40F001003062FEF7D8FC054641F2F1
:102B4000883700BF306A800708D4FEF7CFFC401BEF
:102B5000B842F7D9032002B0BDE8F081B8F1000F08
:102B60007FF4A6AEF06920F08050F061A0E600BFCF
:102B70007068D4E9082120F4741008431043706091
:102B800001203866FEF7B2FC044600BF30688001C1
:102B90003FF5A3AEFEF7AAFC001B02284FF003008E
:102BA000F4D99BE6411E0020B0EB116F1CBF012041
:102BB00070474EF21002CEF2000251604EF62351E1
:102BC000CEF20001F0230B70072190601160704776
:102BD00070470000704700007047000010B590F883
:102BE0003C20012A04BF022010BDD1E90232D1E904
:102BF00000CE22F47C5223F470531A4348F2FF7340
:102C0000CFF6F07303EA0E0342EA030E0A692CF4CE
:102C100077234EEA030C22F476224B6942EA0C0237
:102C20001A438B6A22F4742223F4702342EA030CC1
:102C3000D1F818E0046843F20043C4F201039C4257
:102C40004CEA0E4305D042F60042C4F2010294421F
:102C500010D123F07C7ED1E9073C496A0022CFF6EF
:102C6000F04202EA015141EA0E0123F000721143E1
:102C700041EA0C030021636480F83C10084610BD53
:102C8000B0B590F83C20012A4FF0020245D080F800
:102C90003D20026843F2004C54689368C4F2010C72
:102CA00042F6004E6245C4F2010E01D0724503D1D6
:102CB0004D6824F470042C430D6824F070042C43F8
:102CC00042F6FF35C4F20105AA42546010DCB2F1AD
:102CD000804F17D040F20045C4F20005AA4211D03F
:102CE00040F60005C4F20005AA420BD00FE000BF79
:102CF000724507D044F20005C4F20105AA4201D092
:102D0000624504D1896823F0800319439160012151
:102D1000002280F83D1080F83C201046B0BD000035
:102D2000002804BF0120704710B5044690F83D000C
:102D300028B9002084F83C00204600F023F8022047
:102D400084F83D002068211D01F0E8FA012084F894
:102D5000480084F83E0084F83F0084F8400084F87E
:102D6000410084F8420084F8430084F8440084F869
:102D7000450084F8460084F8470084F83D000020B0
:102D800010BD000010B582B0006841F20001C4F22D
:102D90000001884214D040F20041C4F20001884290
:102DA00028D141F21C00C4F2020001681D2441F048
:102DB00002010160006800F00200019001980DE03E
:102DC00041F21C00C4F202000168362441F01001F7
:102DD0000160006800F0100000900098204600217B
:102DE0000022FEF7FFFB204602B0BDE81040FEF7D0
:102DF000E5BB00BF02B010BD90F83D1001291CBF1B
:102E000001207047022180F83D10016842F6FF3230
:102E1000C868C4F20102914240F00100C8600FDCB2
:102E2000B1F1804F1ED040F20040C4F20000814258
:102E300018D040F60000C4F20000814212D01EE01B
:102E400042F60040C4F2010081420BD044F200007F
:102E5000C4F20100814205D043F20040C4F20100F7
:102E600081420CD188680722C0F201020240062A82
:102E70004FF0000008D0B2F5803F08BF70470868E7
:102E800040F00100086000207047000080B590F815
:102E90003C20012A4FF0020200F0C28080F83D2061
:102EA000D0F800C08822DCF80830CFF6FE721A4055
:102EB000CCF808200B684F2B28DC1F2B44DD202B7F
:102EC00045D0302B43D0402B40F0AC80D1F804E00B
:102ED000C968DCF82030DCF8202022F00102CCF8B0
:102EE0002020DCF8182022F0F00242EA011123F041
:102EF0000A0242EA0E02CCF81810CCF82020DCF8C6
:102F0000081041F0470121F0300180E06F2B27DDF0
:102F1000B3F5005F48D0B3F5805F7AD0702B40F0F6
:102F20008180D1E901E3C968DCF8082043EA0E0397
:102F300022F47F4243EA01211143CCF80810DCF867
:102F4000081041F0770162E00BB1102B6AD1DCF878
:102F5000081021F07001194341F0070157E000BF4C
:102F6000502B35D0602B5DD1D1F804E0C968DCF876
:102F7000203023F01003CCF82030DCF81830DCF8D7
:102F8000202023F4704322F0A00243EA013142EAF8
:102F90000E12CCF81810CCF82020DCF8081041F004
:102FA000670121F0100132E0D1E901E3C968DCF8E2
:102FB000082043EA0E0322F47F4243EA0121114331
:102FC000CCF80810DCF8081041F480411FE000BF85
:102FD000D1F804E0C968DCF82030DCF8202022F0C9
:102FE0000102CCF82020DCF8182022F0F00242EA9E
:102FF000011123F00A0242EA0E02CCF81810CCF8B4
:103000002020DCF8081041F0570121F02001CCF815
:1030100008100022012180F83D10002180F83C10AA
:10302000104680BD0122F5E77047000010B5016829
:1030300004460869800744BFC8685FEA80703FD4CF
:103040000869400744BFC8685FEA407044D4086913
:10305000000744BFC8685FEA00704BD40869C00627
:1030600044BFC8685FEAC06050D40869C0071CBF8D
:10307000C8685FEAC07057D10869000644BFC868D5
:103080005FEA006058D40869C00544BFC8685FEAB9
:10309000006059D40869400644BFC8685FEA4060D0
:1030A0005AD40869800646BFC8685FEA806010BDD0
:1030B0006FF0200220460A61BDE81040FFF78CBD8A
:1030C0006FF00200086101202077886980074BD0EB
:1030D0002046FFF7A9FF4DE06FF0040008610220D1
:1030E0002077886910F4407F48D02046FFF79CFF86
:1030F0004AE000BF6FF00800086104202077C8692B
:10310000800745D02046FFF78FFF47E06FF01000A3
:10311000086108202077C86910F4407F42D020461B
:10312000FFF782FF44E000BF6FF001000861204616
:1031300000F08AFB21689FE76FF08000086120465D
:10314000FFF748FD21689EE76FF480700861204614
:10315000FFF73EFD21689DE76FF0400008612046C3
:1031600000F0A6FB21689CE7204600F06BF82046A3
:1031700000F0A4FA21680020207761E7204600F0E3
:1031800061F8204600F09AFA2168002020775EE777
:10319000204600F057F8204600F090FA2168002001
:1031A00020775BE7204600F04DF8204600F086FAD5
:1031B00021680020207758E780B586B0006800219C
:1031C000B0F1804F0591CDE90311029101911BD01F
:1031D00042F60041C4F20101884231D141F21400AB
:1031E000C4F2020001684FF4206241F40011016052
:1031F0000068022100F400100090009841F20000E5
:10320000C4F6000012E000BF41F21400C4F2020054
:1032100001684FF4004241F400310160006801216F
:1032200000F40030009000984FF09040019202228C
:1032300002920022059101A9CDE90322FEF77AF856
:1032400006B080BD704700002DE9F04190F83C3099
:10325000012B04BF0220BDE8F0814FEAB202052A2B
:1032600000F27281DFE812F006005000A400F800BE
:103270003401780103681A6AA3F1804622F0010242
:103280001A621D6A1A465C6852F818CF8F68A6F554
:103290009636D1F800E025F002054FEAB626072E53
:1032A00045EA07050AD80127B74017F0E50F1FBF09
:1032B000CF6825F00C0527F004073D43072E0BD8F7
:1032C000012707FA06F616F0E50F1FBF24F4407435
:1032D000D1E9056734433C434FF68C76CFF6FE7652
:1032E0000CEA060747EA0E075C609F614F680969B0
:1032F0005F631D629F6947F008079F619F6927F020
:1033000004079F6165E100BF036843F200461A6A43
:10331000C4F2010622F010021A621D6A1A46D3F89E
:1033200004C052F8188FB3428E68D1F800E025F03F
:10333000200545EA061505D042F60046C4F201060E
:10334000B34207D1CE686FF0400725F0C00507EA09
:1033500006163543A3F18046A6F596364FEAB62603
:10336000072E0CD8012707FA06F616F0E50F1FBF47
:10337000D1E905672CF44064374344EA870C48F6EA
:10338000FF44CFF6FF6404EA080444EA0E27C3F8BA
:1033900004C09F614F6809699F631D629F6947F47C
:1033A00000679F619F6927F480679F6110E100BFFC
:1033B000036843F200461A6AC4F2010622F48072DE
:1033C0001A621D6A1A46D3F804C052F81CEFB342C1
:1033D0008E68D1F8008025F4007545EA062505D0F1
:1033E00042F60046C4F20106B34207D1CE6840F26D
:1033F000FF47360225F44065BE433543A3F18046BE
:10340000A6F596364FEAB626072E0CD8012707FAFE
:1034100006F616F0E50F1FBFD1E905672CF44054FE
:10342000374344EA071C4FF68C74CFF6FE740EEA5D
:10343000040747EA0807C3F804C0DF614F68096959
:10344000DF631D62DF6947F00807DF61DF6927F08E
:103450000407DF61BDE000BF03681A6AA3F180477B
:1034600022F480521A621A46A7F59637D3F82080C4
:103470005D6852F81CCFD1F800E08E684FEAB7279C
:10348000072F09D80124BC4014F0E50F1EBF4C697A
:1034900025F4804545EA841528F4005444EA0634AE
:1034A00048F6FF46CFF6FF660CEA060747EA0E2706
:1034B0005D60DF614F6809691F641C62DF6947F462
:1034C0000067DF61DF6927F48067DF6180E000BFAC
:1034D00003681A6AA3F1804722F480321A621A46FE
:1034E000A7F59637D3F820805D6852F854EFD1F8ED
:1034F00000C08E684FEAB727072F09D80124BC40C7
:1035000014F0E50F1EBF4C6925F4803545EA04250B
:1035100028F4003444EA06444FF68C76CFF6FE7663
:1035200003360EEA060747EA0C075D605F654F68E1
:1035300009699F651C625F6D47F008075F655F6DF5
:1035400027F004075F6544E00121002280F83C2059
:103550000846BDE8F08100BF03681A6AA3F18047FE
:1035600022F480121A621A46A7F59637D3F8208003
:103570005D6852F854EFD1F800C08E684FEAB72763
:10358000072F09D80124BC4014F0E50F1EBF4C6979
:1035900025F4802545EA842528F4001444EA0654DD
:1035A00048F6FF46CFF6FF6606F540760EEA0607B8
:1035B00047EA0C275D605F654F680969DF651C623B
:1035C0005F6D47F400675F655F6D27F480675F6537
:1035D00009021368194311600021002280F83C2081
:1035E0000846BDE8F0810000002804BF01207047B4
:1035F00010B5044690F83D0028B9002084F83C003E
:10360000204600F023F8022084F83D002068211DA8
:1036100000F084FE012084F8480084F83E0084F81D
:103620003F0084F8400084F8410084F8420084F8A8
:10363000430084F8440084F8450084F8460084F888
:10364000470084F83D00002010BD000010B582B096
:103650000068B0F1804F15D042F60041C4F201017C
:10366000884229D141F21800C4F2020001681B24EB
:1036700041F400610160006800F40060019001986D
:103680000EE000BF41F21800C4F2020041681C24A1
:1036900041F001014160406800F001000090009895
:1036A000204600210022FDF79DFF204602B0BDE824
:1036B0001040FDF783BF00BF02B010BD704700008F
:1036C00061B10A1F4FEAB202032A11D8DFE802F003
:1036D0000214181C00F13F0318E000BF90F83E20D0
:1036E000012A1CBF01207047022280F83E202CE0F6
:1036F00000F143030AE000BF00F1400306E000BF11
:1037000000F1410302E000BF00F142031B78012BEE
:103710001CBF01207047032A08D8DFE802F0030B22
:103720000F1300BF022280F83F200EE0022280F833
:1037300043200AE0022280F8402006E0022280F8BE
:10374000412002E0022280F84220026801F01F01BD
:103750000120136A00FA01F18B431362136A0B43D1
:10376000A2F18041A1F596314FEAB12106291362F9
:1037700044D8884010F0650F40D0506C42F6FF31BD
:10378000C4F2010140F400408A42506410DCB2F1FE
:10379000804F1FD040F20040C4F20000824219D096
:1037A00040F60000C4F20000824213D01FE000BFC8
:1037B00042F60040C4F2010082420BD044F2000005
:1037C000C4F20100824205D043F20040C4F201007D
:1037D00082420CD190680721C0F201010140062904
:1037E0004FF0000008D0B1F5803F08BF7047106867
:1037F00040F0010010600020704700BF42F6FF302B
:10380000C4F201008242C2DD43F6FF70C4F201003F
:10381000824207DC42F60040C4F201008242D3D16A
:10382000D8E700BF44F20000C4F201008242D1D0C8
:1038300044F60000C4F20100824202BF506C40F422
:1038400000405064D3E70000B0B540F2E014C2F28B
:10385000000405460068216A884216D1606848F273
:103860001F51C5F2EB11A0FB011251099C2201FB73
:1038700002002170607041F29850C2F200002146AF
:103880000222642300F076FC286841F24C51C2F217
:1038900000010968884218BFB0BD04F10C00002186
:1038A000002240F2BA73BDE8B040FDF7E1BB000072
:1038B000704700007047000070470000704700002C
:1038C000B0B501680446C8690D6840F62F028B68E0
:1038D0000240202A05F0200E0AD1BEF1000F07D0C9
:1038E000A16E00293CD02046BDE8B040084700BF8B
:1038F00040F60F02104209D040F22012C0F20042FE
:1039000003F0010C2A4012EB0C0215D1226E012AA1
:1039100005D110F0100218BF15F0100222D1C2021A
:1039200014D513F4800211D04FF4801220460A629D
:10393000BDE8B040FFF7C0BFC20718BF15F48072E2
:1039400040F09281820700F19981A2E1010640F1E5
:10395000978015F0800100F09380E16E0029C2D1BC
:10396000B0BD00BF102008628868400600F1BE802C
:10397000B4F85800B4F85A10B4F85A20002A18BF06
:103980008842EDD0401A216851E8001F226821F4D6
:10399000907142E80013DBB1216851E8001F2268F2
:1039A00021F4907142E8001393B1216851E8001F9F
:1039B000226821F4907142E800134BB1216851E86C
:1039C000001F226821F4907142E80013002BDAD125
:1039D000216851E8021F226821F0010142E8021328
:1039E000DBB1216851E8021F226821F0010142E8A1
:1039F000021393B1216851E8021F226821F00101EE
:103A000042E802134BB1216851E8021F226821F0FD
:103A1000010142E80213002BDAD12021C4F8801002
:103A200000212166A166216851E8001F226821F06B
:103A3000100142E80013DBB1216851E8001F226841
:103A400021F0100142E8001393B1216851E8001FF2
:103A5000226821F0100142E800134BB1216851E8BF
:103A6000001F226821F0100142E80013002BDAD178
:103A7000022281B220466266BDE8B040FFF71ABF5D
:103A800040067FF56DAF15F0400008BFB0BD00BF28
:103A9000206850E8000F216820F0400041E8000253
:103AA000DAB1206850E8000F216820F0400041E8BA
:103AB000000292B1206850E8000F216820F0400019
:103AC00041E800024AB1206850E8000F216820F068
:103AD000400041E80002002ADAD120200021E067FE
:103AE0002046E166BDE8B04000F0A4BB606F01680D
:103AF00049688AB2002A3FF433AFB4F858309A428A
:103B0000BFF42EAFA4F85A108069202800F09E80E0
:103B1000206850E8000F216820F4807041E800021E
:103B2000DAB1206850E8000F216820F4807041E885
:103B3000000292B1206850E8000F216820F48070E4
:103B400041E800024AB1206850E8000F216820F4E3
:103B5000807041E80002002ADAD1206850E8020FA4
:103B6000216820F0010041E80202C2B3206850E859
:103B7000020F216820F0010041E802027AB32068B8
:103B800050E8020F216820F0010041E8020232B340
:103B9000206850E8020F216820F0010041E802028D
:103BA000002ADAD11BE000BF206850E8020F21682C
:103BB00020F0400041E80202DAB1206850E8020F2C
:103BC000216820F0400041E8020292B1206850E8EC
:103BD000020F216820F0400041E802024AB120684B
:103BE00050E8020F216820F0400041E80202002A5C
:103BF000DAD12020C4F8800000202066206850E838
:103C0000000F216820F0100041E80002DAB12068BE
:103C100050E8000F216820F0100041E8000292B146
:103C2000206850E8000F216820F0100041E80002F1
:103C30004AB1206850E8000F216820F0100041E8E8
:103C40000002002ADAD1606FFDF726FA02206066D2
:103C5000B4F85800B4F85A10401A81B22046BDE8B2
:103C6000B040FFF727BE00BF01220A62D4F88420CB
:103C700042F00102C4F8842082070AD5BCF1000F8B
:103C800007D002220A62D4F8842042F00402C4F869
:103C9000842042070AD5BCF1000F07D004220A6233
:103CA000D4F8842042F00202C4F8842002070DD523
:103CB0004EEA0C02B2FA82F2520907D108220A62D5
:103CC000D4F8842042F00802C4F8842002050BD501
:103CD00015F0806208D04FF400620A62D4F88420A4
:103CE00042F02002C4F88420D4F88420002A3FF453
:103CF00037AE10F0200018BFBEF1000F40F0CA80B0
:103D0000D4F88400896800F0280001F040014018D0
:103D100006D12046FFF7D2FD0020C4F88400B0BDD4
:103D2000206850E8000F216820F4907041E80002FC
:103D3000BAB3206850E8000F216820F4907041E881
:103D4000000272B3206850E8000F216820F49070E0
:103D500041E800022AB3206850E8000F216820F4EF
:103D6000907041E80002002ADAD11AE0206850E899
:103D7000020F216820F0010041E80202DAB1206858
:103D800050E8020F216820F0010041E8020292B1E0
:103D9000206850E8020F216820F0010041E802028B
:103DA0004AB1206850E8020F216820F0010041E884
:103DB0000202002ADAD1206E012824D1206850E8BE
:103DC000000F216820F0100041E80002DAB12068FD
:103DD00050E8000F216820F0100041E8000292B185
:103DE000206850E8000F216820F0100041E8000230
:103DF0004AB1206850E8000F216820F0100041E827
:103E00000002002ADAD12020C4F8800000202066B9
:103E10002168A0668868400636D500BF206850E853
:103E2000020F216820F0400041E80202DAB1206868
:103E300050E8020F216820F0400041E8020292B1F0
:103E4000206850E8020F216820F0400041E802029B
:103E50004AB1206850E8020F216820F0400041E894
:103E60000202002ADAD1606F70B144F27961C0F6C3
:103E700000014163FDF734F900283FF471AD606F34
:103E8000416BBDE8B04008472046BDE8B040FFF7B1
:103E900015BD00BFA26E002A3FF432AF2046904706
:103EA00021682DE710B5A0B10446C06F28B90020E5
:103EB00084F87800204600F027F82420E067206886
:103EC000016821F001010160204600F07FFD01281A
:103ED00002D1012010BD00BF606A10B1204600F081
:103EE000A3FA2168486820F490404860886820F070
:103EF0002A008860086840F0010220460A60BDE898
:103F0000104000F005BB000080B586B0006843F6A5
:103F10000001C4F20101884202D006B080BD00BF9A
:103F200041F21400C4F20200416841F48041416052
:103F3000416801F4804101910199016841F4002137
:103F40000160006801A900F4002001900198302070
:103F5000019002200290002003900320049007208B
:103F6000059040F60000C4F60000FDF7E3F92520B7
:103F700000210022FDF736FB2520FDF71FFB06B0D0
:103F800080BD0000B0B5D0F88030202B1CBF0220CF
:103F9000B0BD00294FF0010318BF002A02D1184616
:103FA000B0BD00BF4FF0000CC0F860C003685B6894
:103FB0001B0211D44165A0F85820A0F85A2081684E
:103FC000C0F868C091B3B1F5805F33D1016999BB86
:103FD00040F2FF1131E000BF036853E800EF0568CD
:103FE0004EF0806345E80034002CE3D0036853E8CA
:103FF000003F056843F0806345E80034002CD9D0C9
:10400000036853E8003F056843F0806345E80034E7
:10401000002CCFD0036853E8003F056843F080636D
:1040200045E80034002CD7D1C4E700BF016919B1BD
:104030007F2102E0002100E0FF21A0F85C100021B8
:10404000C0F884102221C0F8801000BF016851E838
:10405000021F026841F0010142E80213DBB101686E
:1040600051E8021F026841F0010142E8021393B1D6
:10407000016851E8021F026841F0010142E80213A1
:104080004BB1016851E8021F026841F0010142E8AA
:104090000213002BDAD182680169B2F5805F07D183
:1040A000A1B344F62901C0F60001816606E000BF15
:1040B00044F62902C0F60002826669B3016851E83D
:1040C000001F026841F4907142E80013DBB10168FF
:1040D00051E8001F026841F4907142E8001393B167
:1040E000016851E8001F026841F4907142E8001332
:1040F0004BB1016851E8001F026841F4907142E839
:104100000013002BDAD10020B0BD00BF44F289615A
:10411000C0F60001816600BF016851E8001F026817
:1041200041F0200142E80013002BECD0016851E877
:10413000001F026841F0200142E80013002BE2D08A
:10414000016851E8001F026841F0200142E80013B5
:10415000002BD8D0016851E8001F026841F020010F
:1041600042E80013002B4FF00003D5D117E7000001
:10417000704700002DE9F04182B00446C06F20284E
:104180001ED10D4600294FF001004AD01746002AE3
:1041900047D00020C4F8840021209846E067FDF74E
:1041A000A5F9A4F85070A4F85270A1680746B1F5BB
:1041B000805F01D1206938B12E46002511E000BF93
:1041C000022002B0BDE8F08100260AE035F8021BAB
:1041D00000266FF35F210185B4F852000138A4F87E
:1041E0005200B4F8520078B12046802100223B46AC
:1041F000CDF8008000F0D4FCB0B92068002EE5D0E6
:1042000016F8011BE7E700BF2046402100223B468D
:10421000CDF8008000F0C4FC2021E167002818BF21
:10422000032002B0BDE8F0812020E067032002B047
:10423000BDE8F08170470000FEE7000080B540F661
:10424000706040F20801C2F20000C2F200010022D8
:1042500001F060F9002818BFFCF7F4F840F6706030
:1042600040F22801C2F20000C2F2000101F090FB0E
:10427000002818BFFCF7E6F840F6706040F24C11D9
:10428000C2F20000C2F2000100F0E6FE002818BFF2
:10429000FCF7D8F840F67060C2F2000001F08EFB27
:1042A000002808BF80BDBDE88040FCF7CBB8000007
:1042B000FEE70000FEE700007047000070470000C6
:1042C000FDF71AB94EF68850CEF20000016841F4AD
:1042D000700101607047000041F2B440C2F200007A
:1042E000FEF7A4BE41F20050C2F20000FEF79EBEEF
:1042F00040F20020C2F20000FEF798BE80B541F205
:104300004C50C2F20000FEF791FE40F2EC10C2F2F7
:104310000000BDE88040FCF729BE000080B540F2F7
:10432000FF7C0268C4F2000C604521DD40F600030A
:10433000C4F20003984224D043F20043C4F20103C4
:1043400098421ED042F60043C4F20103984218D0AE
:1043500043F2FF33C4F2010398421CDC604529DCC0
:10436000B0F1804F3CD040F20043C4F2000335E08E
:10437000B0F1804F05D040F20043C4F200039842F0
:10438000E6D14B6822F070021A4343F2FF33C4F2C5
:1043900001039842E2DD44F2FF33C4F20103984284
:1043A00012DC43F20043C4F20103984218D044F2F5
:1043B000000311E040F60003C4F2000398420FD05E
:1043C00042F6004308E000BF44F60003C4F20103D4
:1043D000984205D044F20043C4F20103984203D14D
:1043E000CB6822F440721A434B6922F0800E8A682F
:1043F00043EA0E03D1F800C00360C262A0F180421C
:10440000A2F596324FEAB222072AC0F828C007D890
:10441000012303FA02F212F0E50F1CBF09690163E0
:104420000121416180BD000080B5416ACA070DD1FC
:104430008A0716D44A071FD40A0728D4CA0631D4DB
:104440008A063AD44A0658D542E000BF0268D0F83E
:1044500028C0536823F4003343EA0C0353608A07EF
:10446000E8D50268D0F82CC0536823F4803343EABF
:104470000C0353604A07DFD50268D0F830C0536898
:1044800023F4802343EA0C0353600A07D6D502685D
:10449000D0F834C0536823F4004343EA0C0353605C
:1044A000CA06CDD50268D0F838C0936823F480538B
:1044B00043EA0C0393608A06C4D50268D0F83CC076
:1044C000936823F4005343EA0C0393604A0614D51F
:1044D0000268D0F840C05368BCF5801F23F48013F5
:1044E00043EA0C03536008D1D2F804C0D0F844E08A
:1044F0002CF4C00343EA0E035360090658BF80BD85
:104500000168806C4A6822F400221043486080BD34
:10451000B0B582B004460020C4F88400FCF7E6FF82
:10452000216805460A68120735D56FF07E4C204693
:104530004FF4001100222B46CDF800C000F030FBF4
:1045400040B300BF206850E8000F216820F08000D1
:1045500041E80002DAB1206850E8000F216820F03D
:10456000800041E8000292B1206850E8000F216805
:1045700020F0800041E800024AB1206850E8000FB6
:10458000216820F0800041E80002002ADAD12020D2
:10459000E0675FE021680868400761D56FF07E4CF6
:1045A00020464FF4800100222B46CDF800C000F0D9
:1045B000F7FA002854D000BF206850E8000F2168A7
:1045C00020F4907041E80002E2B1206850E8000F4A
:1045D000216820F4907041E800029AB1206850E808
:1045E000000F216820F4907041E8000252B1206869
:1045F00050E8000F216820F4907041E80002002A82
:10460000DAD100BF206850E8020F216820F00100D5
:1046100041E80202DAB1206850E8020F216820F078
:10462000010041E8020292B1206850E8020F2168BF
:1046300020F0010041E802024AB1206850E8020F70
:10464000216820F0010041E80202002ADAD120208E
:10465000C4F880000320002184F8781002B0B0BDB7
:104660002020E067C4F880000020206660660021FA
:1046700084F8781002B0B0BD406A0021A0F85A104A
:10468000A0F85210FFF71AB9B0F85C200168D0F812
:104690008030222B40F0C280898C436D114023F87A
:1046A000021B4365B0F85A100139A0F85A10B0F84F
:1046B0005A10002918BF7047016851E8001F0268AE
:1046C00021F4907142E80013E3B1016851E8001F42
:1046D000026821F4907142E800139BB1016851E82F
:1046E000001F026821F4907142E8001353B1016881
:1046F00051E8001F026821F4907142E80013002B7A
:10470000DAD100BF016851E8021F026821F00101FF
:1047100042E80213DBB1016851E8021F026821F090
:10472000010142E8021393B1016851E8021F0268D7
:1047300021F0010142E802134BB1016851E8021F68
:10474000026821F0010142E80213002BDAD1202196
:10475000C0F880100021816641660168496809023D
:1047600025D500BF016851E8001F026821F0806173
:1047700042E80013DBB1016851E8001F026821F034
:10478000806142E8001393B1016851E8001F02689C
:1047900021F0806142E800134BB1016851E8001F2D
:1047A000026821F0806142E80013002BDAD1016E2B
:1047B000012918BFFFF7DCBC00210166016851E840
:1047C000001F026821F0100142E80013DBB101680C
:1047D00051E8001F026821F0100142E8001393B174
:1047E000016851E8001F026821F0100142E800133F
:1047F0004BB1016851E8001F026821F0100142E846
:104800000013002BDAD10168CA69D20644BF102216
:104810000A62B0F85810FFF74DB800BF886940F041
:104820000800886170470000B0F85C100268D0F89A
:104830008030222B40F0C480928C436D114019705F
:10484000416D01314165B0F85A100139A0F85A1094
:10485000B0F85A10002918BF704700BF016851E82E
:10486000001F026821F4907142E80013E3B101686F
:1048700051E8001F026821F4907142E800139BB1D7
:10488000016851E8001F026821F4907142E80013AA
:1048900053B1016851E8001F026821F4907142E8A9
:1048A0000013002BDAD100BF016851E8021F026833
:1048B00021F0010142E80213DBB1016851E8021F57
:1048C000026821F0010142E8021393B1016851E846
:1048D000021F026821F0010142E802134BB1016896
:1048E00051E8021F026821F0010142E80213002B87
:1048F000DAD12021C0F8801000218166416601686C
:104900004968090225D500BF016851E8001F026807
:1049100021F0806142E80013DBB1016851E8001F1B
:10492000026821F0806142E8001393B1016851E808
:10493000001F026821F0806142E800134BB101685A
:1049400051E8001F026821F0806142E80013002B4B
:10495000DAD1016E012918BFFFF70ABC00210166F8
:10496000016851E8001F026821F0100142E80013BD
:10497000DBB1016851E8001F026821F0100142E834
:10498000001393B1016851E8001F026821F0100183
:1049900042E800134BB1016851E8001F026821F0A2
:1049A000100142E80013002BDAD10168CA69D2066F
:1049B00044BF10220A62B0F85810FEF77BBF00BF58
:1049C000906940F00800906170470000B0B505465E
:1049D0000168806805F10C041CCC184340EA04030C
:1049E000D5F81CC00C6849F20C6024EA000018439A
:1049F00040EA0C000860486820F4405010434860CA
:104A0000A8692A6A8B68104323F4306210438860D7
:104A100044F6FF30C4F2000081424FF0100219DD6D
:104A200044F60040C4F20000814227D045F2000065
:104A3000C4F20000814229D043F60000C4F2010014
:104A4000814239D141F23000C4F20200016850A223
:104A50002EE000BF44F20040C4F2000081421DD0AD
:104A600044F60000C4F20000814225D141F230003A
:104A7000C4F202000068810C16E000BF41F2300071
:104A8000C4F202000068010D0EE000BF41F23000E8
:104A9000C4F202000068810D06E000BF41F2300060
:104AA000C4F202000068010C47F69422C0F600022E
:104AB00001F0030052F8202041F20020BCF5004F25
:104AC000C0F27A0010D1082A4FF0010100F25B8099
:104AD000DFE802F0061A26591E595959240000BF72
:104AE000FDF756FEE0B916E0082A4FF001014AD85A
:104AF000DFE802F0062C384930494949360000BF4A
:104B0000FDF746FE70BB28E0FDF756FE40B902E017
:104B1000FDF766FE20B9002135E000BF4FF40040EC
:104B200069684A0802EB4000B0FBF1F04FF6EF7203
:104B3000A0F11001914207D84FF6F0710140C0F387
:104B40004200084419E000BF01211CE0FDF734FEDB
:104B500040B902E0FDF744FE20B9002113E000BF98
:104B60004FF4004069684FF6EF7200EB5100B0FB64
:104B7000F1F0A0F11001914204D82968C860002129
:104B800001E000BF012100220846AA66EA66B0BD26
:104B90000100000004000000080000000200000006
:104BA0002DE9F041044600681546C2690E461140E1
:104BB000891BB1FA81F14909A94227D1DDF8188092
:104BC000B8F1000F26D018F1010129D1C169314097
:104BD000891BB1FA81F14909A94217D1C169314054
:104BE000891BB1FA81F14909A9420FD1C16931404C
:104BF000891BB1FA81F14909A94207D1C169314044
:104C0000891BB1FA81F14909A942DFD00020BDE832
:104C1000F08100BFFCF76AFC0320BDE8F08100BF13
:104C20001F4607E0C0693040801BB0FA80F04009A1
:104C3000A842EBD1FCF75AFCC01B404500F28E8025
:104C4000206801684907EDD5C169090700F18A802C
:104C5000C1690905E6D54FF400610162206850E89A
:104C6000000F216820F4907041E80002BAB3206878
:104C700050E8000F216820F4907041E8000272B300
:104C8000206850E8000F216820F4907041E800028D
:104C90002AB3206850E8000F216820F4907041E8A2
:104CA0000002002ADAD11AE0206850E8020F2168D9
:104CB00020F0010041E80202DAB1206850E8020F5A
:104CC000216820F0010041E8020292B1206850E81A
:104CD000020F216820F0010041E802024AB1206879
:104CE00050E8020F216820F0010041E80202002A8A
:104CF000DAD1206E012824D1206850E8000F216805
:104D000020F0100041E80002DAB1206850E8000FFE
:104D1000216820F0100041E8000292B1206850E8BC
:104D2000000F216820F0100041E800024AB120681D
:104D300050E8000F216820F0100041E80002002A2E
:104D4000DAD120200021C4F880002166A166C4F8D1
:104D50008400032084F87810BDE8F0810320BDE8CA
:104D6000F08100BF08210162206850E8000F21682F
:104D700020F4907041E80002BAB3206850E8000FB8
:104D8000216820F4907041E8000272B3206850E876
:104D9000000F216820F4907041E800022AB32068D7
:104DA00050E8000F216820F4907041E80002002ACA
:104DB000DAD11AE0206850E8020F216820F00100E3
:104DC00041E80202DAB1206850E8020F216820F0C1
:104DD000010041E8020292B1206850E8020F216808
:104DE00020F0010041E802024AB1206850E8020FB9
:104DF000216820F0010041E80202002ADAD1206E89
:104E0000012824D1206850E8000F216820F010000C
:104E100041E80002DAB1206850E8000F216820F074
:104E2000100041E8000292B1206850E8000F2168AC
:104E300020F0100041E800024AB1206850E8000F5D
:104E4000216820F0100041E80002002ADAD1202079
:104E5000C4F88000002008212066A066C4F88410F1
:104E600084F878000120BDE8F081000041F29850FC
:104E7000C2F20000FEF724BD10B5D0F8B822CAB1C6
:104E800001EB810300EB830E5EF81C4F64B1D0F898
:104E9000C0C201EB81030CEBC303D3F838C0B4FBF1
:104EA000FCF303FB1C433BB100242046C2F8144230
:104EB00010BD00BF022010BD002400220023CEF848
:104EC000004000F047FD204610BD0000B0B5D0F80E
:104ED000B852044600F006FCD4F8B812C5F80C022B
:104EE00051B1D4F8BC0205F50371C268D5F80402CB
:104EF00090470020B0BD00BF0220B0BDB0B58121F9
:104F0000044600F031FB002520460121E56200F057
:104F10002BFB20468221C4F86C5100F025FBD4F80D
:104F2000B802256448B1D4F8BC0240688047D4F880
:104F3000B80200F08FFFC4F8B8520020B0BD0000E6
:104F400010B5D0F8BC1269B1D0F8B84294F800029C
:104F5000FF2807D08B6894F8012221469847FF204C
:104F600084F80002002010BD014640F2E8000A2249
:104F7000C2F200000A807047014640F260004322FE
:104F8000C2F200000A807047014640F2A4004322AA
:104F9000C2F200000A807047014640F2F40043224A
:104FA000C2F200000A807047F0B581B00546007C6F
:104FB0004027002808BF4FF40077284681210222AD
:104FC0003B46402400F0E8FB01262846012102224E
:104FD0003B46EE6200F0E0FB2846822103220823D4
:104FE000C5F86C6100F0D8FB4FF407702E6400F038
:104FF00033FFC5F8B802A8B10746D5F8BC0200686F
:1050000080470026C7F81462C7F81862287CD7F8D2
:105010000422002808BF4FF40074284601212346CB
:1050200000F0CEFB304601B0F0BD000080B5D0F8F6
:10503000B81279B190F810C0D1F8042240230121B0
:10504000BCF1000F08BF4FF4007300F0B9FB002063
:1050500080BD00BF022080BD00290EBF0220C0F825
:10506000BC12002070470000D0F8B8220020C2F81F
:1050700004127047D0F8B8320020C3F80812C3F801
:105080001022704770B582B00446D0F8B86291F92A
:1050900000000D46002210F060018DF80720ADF8E9
:1050A000042013D020293DD1EA88EAB1B0F1FF3FB6
:1050B00040DD6878314686F80002204686F80122F5
:1050C00000F06CF80024204602B070BD68780B2810
:1050D00016D00A281CD028BB94F89C02032821D1A2
:1050E00001A9204602222EE0D4F8BC02294683689A
:1050F0006878002200249847204602B070BD00BFA7
:1051000094F89C0203280DD10024204602B070BD03
:1051100094F89C02032805D10DF1070120460122D5
:1051200011E000BF2046294600F02CF8022420465A
:1051300002B070BDD4F8BC023146836868789847E5
:10514000EA882046314600F043F80024204602B0A9
:1051500070BD000080B5D0F8B4225268904700209E
:1051600080BD000080B513460A46002100F028FBF0
:10517000002080BD80B513460A46002100F0EAFBFE
:10518000002080BD10B58021044600F0B5FB20460C
:105190000021BDE8104000F0AFBB000080B5134611
:1051A0000A460321C0F894120021C0E9573300F0E9
:1051B00007FB002080BD000080B50521C0F89412D7
:1051C00000210022002300F0FBFA002080BD000037
:1051D00080B513460A460221C0F894120021C0E9A6
:1051E000073300F0B7FB002080BD000080B504212C
:1051F000C0F8941200210022002300F0ABFB002035
:1052000080BD000010B540F25024C2F200040A46EE
:1052100002A0214600F010F9204610BD434443206F
:10522000436F6E666967000040F238101222C2F2C6
:1052300000000A807047000010B540F25024C2F20E
:1052400000040A4602A0214600F0F6F8204610BDF0
:1052500043444320496E74657266616365000000D3
:1052600040F25C100422C2F200000A807047000085
:1052700010B540F25024C2F200040A4602A02146B2
:1052800000F0DAF8204610BD53544D6963726F6523
:105290006C656374726F6E696373000010B540F2E1
:1052A0005024C2F200040A4602A0214600F0C4F8CD
:1052B000204610BD53544D333220566972747561C7
:1052C0006C20436F6D506F7274000000B0B54FF2E8
:1052D000AC70C1F6FF70026883684FF01A0C9B181F
:1052E000A1F800C000F0A3804FF0370C1A0F0CEBB0
:1052F00013714068B3F1204F38BF02F1300140F222
:105300006012C2F20002917019014FF0000E0CEB16
:10531000117582F803E0C3F30364B1F1204F38BF85
:1053200004F13005190215710CEB117582F805E0D6
:10533000C3F30354B1F1204F38BF04F13005190312
:1053400095710CEB117582F807E0C3F30344B1F1DA
:10535000204F38BF04F13005190415720CEB11759C
:1053600082F809E0C3F30334B1F1204F38BF04F1F0
:105370003005190595720CEB117582F80BE0C3F33B
:105380000324B1F1204F38BF04F13005190615731D
:10539000C3F303140CEB1175B1F1204F4FEA037105
:1053A00003F00F0382F80DE038BF04F1300503F17C
:1053B0003704957382F80FE0B1F1204F38BF03F145
:1053C0003004010F0CEB1073147482F811E0B0F18B
:1053D000204F38BF01F1300301010CEB11749374BD
:1053E00082F813E0C0F30363B1F1204F38BF03F13B
:1053F000300401021475C0F303530CEB1174B1F1C6
:10540000204F4FEA003182F815E038BF03F1300435
:105410000CEB1173947582F817E0C0F30340B1F1FF
:10542000204F38BF00F13003137682F819E040F2C4
:105430006010C2F20000B0BD10B5002868D003783B
:10544000B3B100F1020E4FF0000C00BF1EF8013C9A
:1054500093B19EF800309BB19EF80130A3B19EF845
:1054600002300CF1040C002B0EF1040EEED10DE015
:105470004FF0000C0AE000BF4CF0010C06E000BF4A
:105480004CF0020C02E000BF4CF0030C5FFA8CFC05
:10549000022303EB4C03138003220B704A7090F835
:1054A00000E0BEF1000F33D0023002224FF0000CBA
:1054B0001AE000BF141DE4B244F0010E0B5501F8D0
:1054C0000EC04378002B08BF10BD941DE4B244F019
:1054D000010E0B5501F80EC090F802E00832BEF143
:1054E000000F00F1040013D0D3B243F0010401F81F
:1054F00003E001F804C010F8013C4BB1941CE4B285
:1055000044F0010E0B5501F80EC00378002BD1D1E9
:1055100010BD0000002804BF0220704780B5D0F8FD
:10552000B432002B1CBF0023C0F8B432002918BFCE
:10553000C0F8B012012180F89C12027000F0D6F879
:10554000002080BD80B5D0F8C002FCF7E5F840F23D
:1055500000220223C100C0F20122042838BF22FA2F
:1055600001F3D8B280BD000080B5D0F8C002FCF7CE
:10557000ABF840F200220223C100C0F2012204284D
:1055800038BF22FA01F3D8B280BD0000B0B504469E
:1055900071B1D4F8B402426942B194F89C02032874
:1055A00004D120469047002054E000BF0220B0BD47
:1055B000D4F89402002818BF042805D12046802181
:1055C00000F09AF93DE000BF02283AD1D4E9081072
:1055D000814209D9081A83B22062204611461A4630
:1055E000FFF7C8FD14E000BFE169814218D3B1FBA9
:1055F000F0F202FB101098B9D4F8980281420FD251
:105600002046002100220025FFF7B4FDC4F898527F
:10561000204600210022002300F0D2F811E000BF54
:10562000D4F8B402C16829B194F89C02032801D1CE
:10563000204688472046802100F05EF92046FFF78B
:10564000BBFD94F8A00201284FF0000004BF84F8CD
:10565000A002B0BDB0BD0000B0B5044671B1D4F831
:10566000B402826942B194F89C02032804D1204616
:10567000904700251CE000BF0220B0BDD4F8940282
:105680000025052816D0032812D1D4E958108142EC
:1056900018D9091AC4F86011814238BF084683B28C
:1056A000204611461A46FFF75DFD0020B0BD00BF41
:1056B0002846B0BD20460021C4F8945200F01CF9E1
:1056C0002846B0BDD4F8B402016929B194F89C020F
:1056D000032801D1204688472046FFF787FD002098
:1056E000B0BD0000D0F8C002FCF748B810B50446C1
:1056F00041F2C81045F60041C2F20000C4F20001B8
:105700000822022380E80E000021C0F8E842C4F815
:10571000C002036181610162FCF768FD002818BFC7
:10572000FAF790FED4F8C002002100221823FBF7FC
:1057300095FFD4F8C002802100225823FBF78EFF8A
:10574000D4F8C00281210022C023FBF787FFD4F8E0
:10575000C002012100224FF48873FBF77FFFD4F8C9
:10576000C002822100224FF48073FBF777FF0020F4
:1057700010BD00004AB2D0F8C00201F07F0101EB79
:10578000810100EBC10000F5B571002A48BF00F1AE
:105790002A0108787047000080B59446D0F8C0020E
:1057A0001A466346FBF7F4FF40F200220223C100D1
:1057B000C0F20122042838BF22FA01F3D8B280BD1A
:1057C00080B5D0F8C002FCF713F840F200220223A3
:1057D000C100C0F20122042838BF22FA01F3D8B276
:1057E00080BD0000F0B581B00021002240230446B6
:1057F00000254026FFF7D0FF012720468021002208
:105800004023C4F85871C4F86461FFF7C5FFD4F8A9
:10581000B802A761666284F89C72C4F8945265600D
:10582000C4F8A45228B1D4F8B4020021426820463A
:105830009047002001B0F0BD90F89C12042904BFED
:1058400090F89D1280F89C120020704780B590F867
:105850009C12032905D1D0F8B412C969002918BFD8
:105860008847002080BD0000024600201174704768
:1058700080B5D0F8C002FCF769FD40F20022022397
:10588000C100C0F20122042838BF22FA01F3D8B2C5
:1058900080BD0000B0B500F52A750446284600F02A
:1058A0006BF894F8A8020121B4F8AE22C4F894125F
:1058B00000F01F010229C4F8982209D001290DD057
:1058C00091B92046294600F07FF80020B0BD00BF06
:1058D0002046294600F0DEF90020B0BD20462946CA
:1058E00000F07CFA0020B0BD00F08001204600F0FE
:1058F00003F80020B0BD000080B5D0F8C002FBF76F
:1059000091FF40F200220223C100C0F201220428CC
:1059100038BF22FA01F3D8B280BD000080B5D0F8BC
:10592000C002FCF72FFD40F200220223C100C0F2AA
:105930000122042838BF22FA01F3D8B280BD00004A
:10594000014690F89C02042281F89D02002081F813
:105950009C22704780B5D0F8C002FBF797FF40F259
:1059600000220223C100C0F20122042838BF22FA1B
:1059700001F3D8B280BD00000A7802704A78427004
:105980004A8842808A888280C988C1807047000026
:1059900000290EBF0220C0F8B4120020704700009A
:1059A00080B5D0F8B4223AB112689047002818BFE9
:1059B0000120400080BD00BF022080BD80B5FFF700
:1059C000ADFF002080BD0000B0B582B00D46097863
:1059D000044611F060010DD0402902D0202940F08A
:1059E0004D81D4F8B40229468268204690470020B1
:1059F00002B0B0BD6878092800F24081DFE810F0FD
:105A00000A0024003E0130003E0166008A003E018B
:105A10003800460094F89C020138022800F22E81DA
:105A2000E888022840F02A81D4F8A4020322002842
:105A300008BF0122214641F80C2F20460222FFF721
:105A4000C7FB002002B0B0BD94F89C0201380228C8
:105A500000F2148168880128C9D1002004E000BF49
:105A600068880128C3D10120C4F8A40200E100BF66
:105A7000E888012840F0028194F89C02411E022926
:105A80005ED20020214641F8080F5DE0688840F2B0
:105A90004C25C1B2C2F200050229287080F0EE80C8
:105AA00094F89C02032857D0022840F07780002900
:105AB00000F0DE80032084F89C0220466160FFF73E
:105AC0006FFF022840F0D480D8E000BFA8880028EB
:105AD00040F0D480E888002840F0D08068887F2893
